{
  "contractName": "LotteryFactory",
  "abi": [
    {
      "constant": false,
      "inputs": [
        {
          "name": "_maxNumberParticipants",
          "type": "uint8"
        },
        {
          "name": "_participationPrice",
          "type": "uint256"
        },
        {
          "name": "_pot",
          "type": "uint256"
        },
        {
          "name": "_prize",
          "type": "uint256"
        }
      ],
      "name": "createLottery",
      "outputs": [],
      "payable": true,
      "stateMutability": "payable",
      "type": "function"
    },
    {
      "constant": true,
      "inputs": [],
      "name": "getLotteries",
      "outputs": [
        {
          "name": "",
          "type": "address[]"
        }
      ],
      "payable": false,
      "stateMutability": "view",
      "type": "function"
    }
  ],
  "bytecode": "0x608060405234801561001057600080fd5b50610f62806100206000396000f30060806040526004361061004c576000357c0100000000000000000000000000000000000000000000000000000000900463ffffffff168063bcc82ec414610051578063f83b3c08146100bd575b600080fd5b34801561005d57600080fd5b506100666100fe565b6040518080602001828103825283818151815260200191508051906020019060200280838360005b838110156100a957808201518184015260208101905061008e565b505050509050019250505060405180910390f35b6100fc600480360381019080803560ff16906020019092919080359060200190929190803590602001909291908035906020019092919050505061018c565b005b6060600080548060200260200160405190810160405280929190818152602001828054801561018257602002820191906000526020600020905b8160009054906101000a900473ffffffffffffffffffffffffffffffffffffffff1673ffffffffffffffffffffffffffffffffffffffff1681526020019060010190808311610138575b5050505050905090565b6000828210151561019c57600080fd5b60008560ff161115156101ae57600080fd5b6000841115156101bd57600080fd5b6000821115156101cc57600080fd5b8484848433306101da6102f1565b808760ff1660ff1681526020018681526020018581526020018481526020018373ffffffffffffffffffffffffffffffffffffffff1673ffffffffffffffffffffffffffffffffffffffff1681526020018273ffffffffffffffffffffffffffffffffffffffff1673ffffffffffffffffffffffffffffffffffffffff1681526020019650505050505050604051809103906000f080158015610281573d6000803e3d6000fd5b50905060008190806001815401808255809150509060018203906000526020600020016000909192909190916101000a81548173ffffffffffffffffffffffffffffffffffffffff021916908373ffffffffffffffffffffffffffffffffffffffff160217905550505050505050565b604051610c3580610302833901905600608060405234801561001057600080fd5b5060405160c080610c35833981018060405281019080805190602001909291908051906020019092919080519060200190929190805190602001909291908051906020019092919080519060200190929190505050856000806101000a81548160ff021916908360ff160217905550846001819055508360028190555081600460016101000a81548173ffffffffffffffffffffffffffffffffffffffff021916908373ffffffffffffffffffffffffffffffffffffffff160217905550826003819055506000600460006101000a81548160ff021916908360038111156100f457fe5b021790555080600560006101000a81548173ffffffffffffffffffffffffffffffffffffffff021916908373ffffffffffffffffffffffffffffffffffffffff160217905550505050505050610ae68061014f6000396000f30060806040526004361061006d576000357c0100000000000000000000000000000000000000000000000000000000900463ffffffff1680631058c7261461007257806333c1420a1461007c5780635aa68ac014610086578063cbc2cce7146100f2578063fffefd911461014d575b600080fd5b61007a610157565b005b6100846102fb565b005b34801561009257600080fd5b5061009b610635565b6040518080602001828103825283818151815260200191508051906020019060200280838360005b838110156100de5780820151818401526020810190506100c3565b505050509050019250505060405180910390f35b3480156100fe57600080fd5b506101076106c3565b604051808660ff1660ff16815260200185815260200184815260200183815260200182600381111561013557fe5b60ff1681526020019550505050505060405180910390f35b610155610704565b005b600180600381111561016557fe5b600460009054906101000a900460ff16600381111561018057fe5b14151561021b576040517f08c379a000000000000000000000000000000000000000000000000000000000815260040180806020018281038252602b8152602001807f45737461646f206e6f207065726d697469646f207061726120656a656375746181526020017f72206c6120616363696f6e00000000000000000000000000000000000000000081525060400191505060405180910390fd5b600154600760003373ffffffffffffffffffffffffffffffffffffffff1673ffffffffffffffffffffffffffffffffffffffff1681526020019081526020016000205414151561026a57600080fd5b6000600760003373ffffffffffffffffffffffffffffffffffffffff1673ffffffffffffffffffffffffffffffffffffffff168152602001908152602001600020819055503373ffffffffffffffffffffffffffffffffffffffff166108fc6001549081150290604051600060405180830381858888f193505050501580156102f7573d6000803e3d6000fd5b5050565b6000600280600381111561030b57fe5b600460009054906101000a900460ff16600381111561032657fe5b1415156103c1576040517f08c379a000000000000000000000000000000000000000000000000000000000815260040180806020018281038252602b8152602001807f45737461646f206e6f207065726d697469646f207061726120656a656375746181526020017f72206c6120616363696f6e00000000000000000000000000000000000000000081525060400191505060405180910390fd5b3373ffffffffffffffffffffffffffffffffffffffff16600460019054906101000a900473ffffffffffffffffffffffffffffffffffffffff1673ffffffffffffffffffffffffffffffffffffffff161415156104ac576040517f08c379a00000000000000000000000000000000000000000000000000000000081526004018080602001828103825260348152602001807f536f6c6f207075656465207265616c697a617220656c20736f7274656f20656c81526020017f20647565c3b16f2064656c20636f6e747261746f00000000000000000000000081525060400191505060405180910390fd5b600460019054906101000a900473ffffffffffffffffffffffffffffffffffffffff1673ffffffffffffffffffffffffffffffffffffffff163373ffffffffffffffffffffffffffffffffffffffff1614151561050857600080fd5b61051061095d565b915060068260ff1681548110151561052457fe5b9060005260206000200160009054906101000a900473ffffffffffffffffffffffffffffffffffffffff1673ffffffffffffffffffffffffffffffffffffffff166108fc6003549081150290604051600060405180830381858888f19350505050158015610596573d6000803e3d6000fd5b50600460019054906101000a900473ffffffffffffffffffffffffffffffffffffffff1673ffffffffffffffffffffffffffffffffffffffff166108fc60035460015460068054905002039081150290604051600060405180830381858888f1935050505015801561060c573d6000803e3d6000fd5b506003600460006101000a81548160ff0219169083600381111561062c57fe5b02179055505050565b606060068054806020026020016040519081016040528092919081815260200182805480156106b957602002820191906000526020600020905b8160009054906101000a900473ffffffffffffffffffffffffffffffffffffffff1673ffffffffffffffffffffffffffffffffffffffff168152602001906001019080831161066f575b5050505050905090565b60008060008060008060009054906101000a900460ff16600154600254600354600460009054906101000a900460ff16945094509450945094509091929394565b60008080600381111561071357fe5b600460009054906101000a900460ff16600381111561072e57fe5b1415156107c9576040517f08c379a000000000000000000000000000000000000000000000000000000000815260040180806020018281038252602b8152602001807f45737461646f206e6f207065726d697469646f207061726120656a656375746181526020017f72206c6120616363696f6e00000000000000000000000000000000000000000081525060400191505060405180910390fd5b600154600760003373ffffffffffffffffffffffffffffffffffffffff1673ffffffffffffffffffffffffffffffffffffffff168152602001908152602001600020541415151561081957600080fd5b6001543414151561082957600080fd5b600154600760003373ffffffffffffffffffffffffffffffffffffffff1673ffffffffffffffffffffffffffffffffffffffff1681526020019081526020016000208190555060063390806001815401808255809150509060018203906000526020600020016000909192909190916101000a81548173ffffffffffffffffffffffffffffffffffffffff021916908373ffffffffffffffffffffffffffffffffffffffff1602179055505060015460068054905002915060025482101515610915576002600460006101000a81548160ff0219169083600381111561090b57fe5b0217905550610959565b6006805490506000809054906101000a900460ff1660ff161415610958576001600460006101000a81548160ff0219169083600381111561095257fe5b02179055505b5b5050565b600080600560009054906101000a900473ffffffffffffffffffffffffffffffffffffffff16905060068054905042448373ffffffffffffffffffffffffffffffffffffffff1663bcc82ec46040518163ffffffff167c0100000000000000000000000000000000000000000000000000000000028152600401600060405180830381600087803b1580156109f157600080fd5b505af1158015610a05573d6000803e3d6000fd5b505050506040513d6000823e3d601f19601f820116820180604052506020811015610a2f57600080fd5b810190808051640100000000811115610a4757600080fd5b82810190506020810184811115610a5d57600080fd5b8151856020820283011164010000000082111715610a7a57600080fd5b505092919050505051604051808481526020018381526020018281526020019350505050604051809103902060019004811515610ab357fe5b06915050905600a165627a7a72305820fef7b2f52398252b02c05dd3a065087c86a54394fbfb9dfcb126c4a50f9846530029a165627a7a7230582065ed4dc5966bf581c79e62b3203989e729e0dbb3eb786ed66934b8e44e772e190029",
  "source": "pragma solidity ^0.4.26; //Lo dice en el video del día 4 a las 2:32:28\n\n/**\n * @title Storage\n * @dev Store & retreive value in a variable\n */\n    \ncontract LotteryFactory {\n\n    address[] private listLotteries; // mapping no deja iterar sobre el. Por lo tanto, va a ser necesario para poder devolver el listado de TODAS las loterias.\n    \n    \n    // Creamos loteria\n    // Creamos la loteria de prueba y colocamos payable y no payable y funciona en ambos casos, investigar TODO\n    function createLottery(uint8 _maxNumberParticipants, uint256 _participationPrice, uint256 _pot, uint256 _prize) public payable {\n        require(_prize < _pot);\n        require(_maxNumberParticipants > 0);\n        require(_participationPrice > 0);\n        require(_prize > 0);\n        \n        address newLottery = new Lottery(_maxNumberParticipants, _participationPrice, _pot, _prize, msg.sender, this);\n        listLotteries.push(newLottery);\n    }\n    \n    //Funcion que devuelve el listado de loterias\n    function getLotteries() public view returns (address[]){\n        return listLotteries;\n    }\n\n}\n\ncontract Lottery {\n\n    uint8 private maxNumberParticipants;\n    uint256 private participationPrice;\n    uint256 private pot;\n    uint256 private prize;\n    State private status;\n    address private ownerLottery;\n    address private masterContract;\n\n    address[] private listParticipants; // lista de los participantes.\n    mapping (address => uint256) private mapParticipants;  // key: address de la participante, y value: el valor de la participacion.\n    \n    // Estados de la loteria\n    enum State{\n        Active,\n        Failed,\n        Finished,\n        Terminated\n    }\n    \n    //Constructor\n    constructor(uint8 _maxNumberParticipants, uint256 _participationPrice, uint256 _pot, uint256 _prize, address _owner, address _masterContract) public {\n        maxNumberParticipants = _maxNumberParticipants;\n        participationPrice = _participationPrice;\n        pot = _pot;\n        ownerLottery = _owner;\n        prize = _prize;\n        status = State.Active;\n        masterContract = _masterContract;\n    }\n    \n\n    // para hacer un patron de estados\n    modifier atState(State _status) {\n        require(status == _status, \"Estado no permitido para ejecutar la accion\");\n        _;\n    }\n    \n    //patron ownable\n    modifier onlyOwner() {\n        require(ownerLottery == msg.sender, \"Solo puede realizar el sorteo el dueño del contrato\");\n        _;\n    }\n    \n \n    //Funcion que devuelve una loteria\n    function getLottery() public view  returns (uint8, uint256, uint256, uint256, State){\n         return (maxNumberParticipants, participationPrice, pot, prize, status);\n    }\n    \n    // Añadir participante de loteria\n    // Se usa el patrond e estados\n    function addParticipant() public payable atState(State.Active) {\n        \n        require(mapParticipants[msg.sender] != participationPrice); // el participante no este ya en la loteria\n        require(msg.value == participationPrice);                   //verificar que el participante participa con el precio de la loteria\n    \n        \n        mapParticipants[msg.sender] = participationPrice;\n        listParticipants.push(msg.sender);\n        \n        uint256 potAcumulated = listParticipants.length * participationPrice;\n        \n        //Si nos pasamos de la recaudacion en el la ultima participación no lo controlamos y se lo queda el lotero. \n        if (potAcumulated >= pot) {\n            status = State.Finished;\n        } else if (maxNumberParticipants == listParticipants.length) {\n            status = State.Failed;\n        }\n    }\n    \n    //Devuelve lista de participantes.\n    function getParticipants() public view returns (address[]) {\n        return listParticipants;\n    }\n    \n    // Withdraw the participation of the lottery\n    // Se usa el patron pull over push\n    // Se usa el patron check effects iteration\n    // Se usa el patron de estados\n    function withdrawParticipation() public payable atState(State.Failed){\n        //1 - Comprobamos que existe\n        require(mapParticipants[msg.sender] == participationPrice);\n        \n         //2 - Lo ponemos a 0 el valor en el mapping para evitar re-entrancy attacks\n        mapParticipants[msg.sender] = 0;\n        \n        //Enviamos el cash\n         msg.sender.transfer(participationPrice);\n    }\n\n    \n    // Sorteo de loteria.\n    // Usamos el patron de estados y el patron ownable\n    function raffle() public payable atState(State.Finished) onlyOwner(){\n    \n        require(msg.sender == ownerLottery);\n        \n        uint8 winner = random();\n        listParticipants[winner].transfer(prize);\n        \n        ownerLottery.transfer((listParticipants.length * participationPrice) - prize);\n        \n        status = State.Terminated;\n    }\n\n    function random() private view returns (uint8) {\n        LotteryFactory l = LotteryFactory(masterContract);\n        return uint8(uint(keccak256(block.timestamp, block.difficulty,l.getLotteries().length))%listParticipants.length);\n    }\n\n}  \n\n\n",
  "sourcePath": "/home/gabriel/tarea/lottery-service-student/lottery-contracts/contracts/LotteryFactory.sol",
  "compiler": {
    "name": "solc",
    "version": "0.4.26+commit.4563c3fc.Emscripten.clang"
  },
  "schemaVersion": "3.2.0",
  "updatedAt": "2020-07-22T18:23:51.179Z",
  "networkType": "ethereum",
  "devdoc": {
    "methods": {},
    "title": "Storage"
  },
  "userdoc": {
    "methods": {}
  }
}