{
  "contractName": "LotteryFactory",
  "abi": [
    {
      "constant": false,
      "inputs": [
        {
          "name": "_maxNumberParticipants",
          "type": "uint8"
        },
        {
          "name": "_participationPrice",
          "type": "uint256"
        },
        {
          "name": "_pot",
          "type": "uint256"
        },
        {
          "name": "_prize",
          "type": "uint256"
        }
      ],
      "name": "createLottery",
      "outputs": [],
      "payable": true,
      "stateMutability": "payable",
      "type": "function"
    },
    {
      "constant": true,
      "inputs": [],
      "name": "getLotteries",
      "outputs": [
        {
          "name": "",
          "type": "address[]"
        }
      ],
      "payable": false,
      "stateMutability": "view",
      "type": "function"
    }
  ],
  "bytecode": "0x608060405234801561001057600080fd5b50611064806100206000396000f30060806040526004361061004c576000357c0100000000000000000000000000000000000000000000000000000000900463ffffffff168063bcc82ec414610051578063f83b3c08146100bd575b600080fd5b34801561005d57600080fd5b506100666100fe565b6040518080602001828103825283818151815260200191508051906020019060200280838360005b838110156100a957808201518184015260208101905061008e565b505050509050019250505060405180910390f35b6100fc600480360381019080803560ff16906020019092919080359060200190929190803590602001909291908035906020019092919050505061018c565b005b6060600080548060200260200160405190810160405280929190818152602001828054801561018257602002820191906000526020600020905b8160009054906101000a900473ffffffffffffffffffffffffffffffffffffffff1673ffffffffffffffffffffffffffffffffffffffff1681526020019060010190808311610138575b5050505050905090565b6000828210151561019c57600080fd5b60008560ff161115156101ae57600080fd5b6000841115156101bd57600080fd5b6000821115156101cc57600080fd5b8484848433306101da6102f1565b808760ff1660ff1681526020018681526020018581526020018481526020018373ffffffffffffffffffffffffffffffffffffffff1673ffffffffffffffffffffffffffffffffffffffff1681526020018273ffffffffffffffffffffffffffffffffffffffff1673ffffffffffffffffffffffffffffffffffffffff1681526020019650505050505050604051809103906000f080158015610281573d6000803e3d6000fd5b50905060008190806001815401808255809150509060018203906000526020600020016000909192909190916101000a81548173ffffffffffffffffffffffffffffffffffffffff021916908373ffffffffffffffffffffffffffffffffffffffff160217905550505050505050565b604051610d3780610302833901905600608060405234801561001057600080fd5b5060405160c080610d37833981018060405281019080805190602001909291908051906020019092919080519060200190929190805190602001909291908051906020019092919080519060200190929190505050856000806101000a81548160ff021916908360ff160217905550846001819055508360028190555081600460006101000a81548173ffffffffffffffffffffffffffffffffffffffff021916908373ffffffffffffffffffffffffffffffffffffffff160217905550826003819055506000600560146101000a81548160ff021916908360038111156100f457fe5b021790555080600560006101000a81548173ffffffffffffffffffffffffffffffffffffffff021916908373ffffffffffffffffffffffffffffffffffffffff160217905550505050505050610be88061014f6000396000f300608060405260043610610078576000357c0100000000000000000000000000000000000000000000000000000000900463ffffffff1680631058c7261461007d57806333c1420a146100875780635aa68ac0146100915780638e7ea5b2146100fd578063cbc2cce714610154578063fffefd91146101af575b600080fd5b6100856101b9565b005b61008f61035d565b005b34801561009d57600080fd5b506100a66106b1565b6040518080602001828103825283818151815260200191508051906020019060200280838360005b838110156100e95780820151818401526020810190506100ce565b505050509050019250505060405180910390f35b34801561010957600080fd5b5061011261073f565b604051808273ffffffffffffffffffffffffffffffffffffffff1673ffffffffffffffffffffffffffffffffffffffff16815260200191505060405180910390f35b34801561016057600080fd5b50610169610769565b604051808660ff1660ff16815260200185815260200184815260200183815260200182600381111561019757fe5b60ff1681526020019550505050505060405180910390f35b6101b76107aa565b005b60018060038111156101c757fe5b600560149054906101000a900460ff1660038111156101e257fe5b14151561027d576040517f08c379a000000000000000000000000000000000000000000000000000000000815260040180806020018281038252602b8152602001807f45737461646f206e6f207065726d697469646f207061726120656a656375746181526020017f72206c6120616363696f6e00000000000000000000000000000000000000000081525060400191505060405180910390fd5b600154600860003373ffffffffffffffffffffffffffffffffffffffff1673ffffffffffffffffffffffffffffffffffffffff168152602001908152602001600020541415156102cc57600080fd5b6000600860003373ffffffffffffffffffffffffffffffffffffffff1673ffffffffffffffffffffffffffffffffffffffff168152602001908152602001600020819055503373ffffffffffffffffffffffffffffffffffffffff166108fc6001549081150290604051600060405180830381858888f19350505050158015610359573d6000803e3d6000fd5b5050565b6000600280600381111561036d57fe5b600560149054906101000a900460ff16600381111561038857fe5b141515610423576040517f08c379a000000000000000000000000000000000000000000000000000000000815260040180806020018281038252602b8152602001807f45737461646f206e6f207065726d697469646f207061726120656a656375746181526020017f72206c6120616363696f6e00000000000000000000000000000000000000000081525060400191505060405180910390fd5b600460009054906101000a900473ffffffffffffffffffffffffffffffffffffffff1673ffffffffffffffffffffffffffffffffffffffff163373ffffffffffffffffffffffffffffffffffffffff1614151561050e576040517f08c379a00000000000000000000000000000000000000000000000000000000081526004018080602001828103825260348152602001807f536f6c6f207075656465207265616c697a617220656c20736f7274656f20656c81526020017f20647565c3b16f2064656c20636f6e747261746f00000000000000000000000081525060400191505060405180910390fd5b60078054905061051c610a03565b60ff1681151561052857fe5b06915060078260ff1681548110151561053d57fe5b9060005260206000200160009054906101000a900473ffffffffffffffffffffffffffffffffffffffff16600660006101000a81548173ffffffffffffffffffffffffffffffffffffffff021916908373ffffffffffffffffffffffffffffffffffffffff160217905550600660009054906101000a900473ffffffffffffffffffffffffffffffffffffffff1673ffffffffffffffffffffffffffffffffffffffff166108fc6003549081150290604051600060405180830381858888f19350505050158015610612573d6000803e3d6000fd5b50600460009054906101000a900473ffffffffffffffffffffffffffffffffffffffff1673ffffffffffffffffffffffffffffffffffffffff166108fc60035460015460078054905002039081150290604051600060405180830381858888f19350505050158015610688573d6000803e3d6000fd5b506003600560146101000a81548160ff021916908360038111156106a857fe5b02179055505050565b6060600780548060200260200160405190810160405280929190818152602001828054801561073557602002820191906000526020600020905b8160009054906101000a900473ffffffffffffffffffffffffffffffffffffffff1673ffffffffffffffffffffffffffffffffffffffff16815260200190600101908083116106eb575b5050505050905090565b6000600660009054906101000a900473ffffffffffffffffffffffffffffffffffffffff16905090565b60008060008060008060009054906101000a900460ff16600154600254600354600560149054906101000a900460ff16945094509450945094509091929394565b6000808060038111156107b957fe5b600560149054906101000a900460ff1660038111156107d457fe5b14151561086f576040517f08c379a000000000000000000000000000000000000000000000000000000000815260040180806020018281038252602b8152602001807f45737461646f206e6f207065726d697469646f207061726120656a656375746181526020017f72206c6120616363696f6e00000000000000000000000000000000000000000081525060400191505060405180910390fd5b600154600860003373ffffffffffffffffffffffffffffffffffffffff1673ffffffffffffffffffffffffffffffffffffffff16815260200190815260200160002054141515156108bf57600080fd5b600154341415156108cf57600080fd5b600154600860003373ffffffffffffffffffffffffffffffffffffffff1673ffffffffffffffffffffffffffffffffffffffff1681526020019081526020016000208190555060073390806001815401808255809150509060018203906000526020600020016000909192909190916101000a81548173ffffffffffffffffffffffffffffffffffffffff021916908373ffffffffffffffffffffffffffffffffffffffff16021790555050600154600780549050029150600254821015156109bb576002600560146101000a81548160ff021916908360038111156109b157fe5b02179055506109ff565b6007805490506000809054906101000a900460ff1660ff1614156109fe576001600560146101000a81548160ff021916908360038111156109f857fe5b02179055505b5b5050565b600080600560009054906101000a900473ffffffffffffffffffffffffffffffffffffffff16905042448273ffffffffffffffffffffffffffffffffffffffff1663bcc82ec46040518163ffffffff167c0100000000000000000000000000000000000000000000000000000000028152600401600060405180830381600087803b158015610a9157600080fd5b505af1158015610aa5573d6000803e3d6000fd5b505050506040513d6000823e3d601f19601f820116820180604052506020811015610acf57600080fd5b810190808051640100000000811115610ae757600080fd5b82810190506020810184811115610afd57600080fd5b8151856020820283011164010000000082111715610b1a57600080fd5b5050929190505050516040516020018084815260200183815260200182815260200193505050506040516020818303038152906040526040518082805190602001908083835b602083101515610b855780518252602082019150602081019050602083039250610b60565b6001836020036101000a038019825116818451168082178552505050505050905001915050604051809103902060019004915050905600a165627a7a723058202a2f5822c5691cef011d7e08bba75239af64785a412ad676ce9b515f92e3c8210029a165627a7a723058209304ddb17c1588ba70d34dffa1c019f53a88b724ec95aa34b54e20a65883698a0029",
  "source": "pragma solidity ^0.4.26; //Lo dice en el video del día 4 a las 2:32:28\n\n\n/// @title Factoria de loterias\n/// @author Javier Eguren Mateo  \n///         Sergio Cañil Montero             \n///         Ana Cristina Llera Amieva \n///         Jorge Chamorro Rodríguez \n///         Gabriel David Muñumel Mesa \n///         Alfonso Martínez-Almeida Riol \n/// @notice Contrato que se encarga de crear loterias y almacenarlas\n/// @dev Las loterias que se van creando se van almacenando en un array de direcciones\ncontract LotteryFactory {\n\n    /// Alamcena las loterias que se van creando\n    address[] private listLotteries; \n\n\n    /// @notice Crea loterias con los parametros indicados\n    /// @dev La direccion de la loteria creada la vamos a ir guardando en un array\n    /// @param _maxNumberParticipants Numero maximo de participantes que puede tener una loteria\n    /// @param _participationPrice Precio de la participacion de la loteria\n    /// @param _pot Bote a recaudar de la loteria\n    /// @param _prize Premio de la loteria\n    function createLottery(uint8 _maxNumberParticipants, uint256 _participationPrice, uint256 _pot, uint256 _prize) public payable {\n        require(_prize < _pot);\n        require(_maxNumberParticipants > 0);\n        require(_participationPrice > 0);\n        require(_prize > 0);\n        \n        address newLottery = new Lottery(_maxNumberParticipants, _participationPrice, _pot, _prize, msg.sender, this);\n        listLotteries.push(newLottery);\n    }\n    \n\n    /// @notice Devuelve la lista de las loterias creadas\n    /// @return array de direcciones de las loterias creadas\n    function getLotteries() public view returns (address[]){\n        return listLotteries;\n    }\n\n}\n\n/// @title Loteria creada\n/// @author Javier Eguren Mateo  \n///         Sergio Cañil Montero             \n///         Ana Cristina Llera Amieva \n///         Jorge Chamorro Rodríguez \n///         Gabriel David Muñumel Mesa \n///         Alfonso Martínez-Almeida Riol \n/// @notice Contrato que se encarga de la manipulacion de una loteria\n/// @dev Las loterias que se van creando se van almacenando en un array de direcciones\ncontract Lottery {\n\n    /// maximo numero de participantes en la loteria\n    uint8 private maxNumberParticipants;\n    /// precio de la participacion de la loteria\n    uint256 private participationPrice;\n    /// precio del bote a recaudar de la loteria\n    uint256 private pot;\n    /// premio de la loteria\n    uint256 private prize;\n    /// direccion del creador de la loteria\n    address private ownerLottery;\n    /// direccion del contrato LotteryFactory\n    address private masterContract;\n    /// estado en el que se encuentra una loteria. Los posibles estados son los que contienen el enum State\n    State private status;\n    /// el ganador final de la loteria\n    address private winner;\n\n    /// Lista de direcciones de los participantes\n    address[] private listParticipants;\n    /// mapping de los participantes de una loteria. Contiene:  key: address de la participante, y value: el valor de la participacion.\n    mapping (address => uint256) private mapParticipants;\n    \n    /// Estados en los que puede estar una loteria\n    enum State{\n        Active,\n        Failed,\n        Finished,\n        Terminated\n    }\n    \n    /// @notice Constructor de la loteria. Crea loterias con los parametros indicados\n    /// @param _maxNumberParticipants Numero maximo de participantes que puede tener una loteria\n    /// @param _participationPrice Precio de la participacion de la loteria\n    /// @param _pot Bote a recaudar de la loteria\n    /// @param _prize Premio de la loteria\n    /// @param _owner Direccion del creador de la loteria\n    /// @param _masterContract Direccion del contrato LotteryFactory\n    constructor(uint8 _maxNumberParticipants, uint256 _participationPrice, uint256 _pot, uint256 _prize, address _owner, address _masterContract) public {\n        maxNumberParticipants = _maxNumberParticipants;\n        participationPrice = _participationPrice;\n        pot = _pot;\n        ownerLottery = _owner;\n        prize = _prize;\n        status = State.Active;\n        masterContract = _masterContract;\n    }\n    \n\n    /// modificador para hacer un patron de estados\n    modifier atState(State _status) {\n        require(status == _status, \"Estado no permitido para ejecutar la accion\");\n        _;\n    }\n    \n    ///patron ownable. No hace falta. Al solo usarse en el sorteo metemos ahi el required\n    ///modifier onlyOwner() {\n    ///    require(ownerLottery == msg.sender, \"Solo puede realizar el sorteo el dueño del contrato\");\n    ///    _;\n    ///}\n    \n    \n\n    /// @notice Devuelve los valores que tiene la lotería que llama a la función.\n    /// @return Numero maximo de participantes que puede tener una loteria\n    /// @return Precio de la participacion de la loteria\n    /// @return Bote a recaudar de la loteria\n    /// @return Premio de la loteria\n    /// @return Estado en el que se encuentra la loteria\n    function getLottery() public view  returns (uint8, uint256, uint256, uint256, State){\n         return (maxNumberParticipants, participationPrice, pot, prize, status);\n    }\n    \n    /// @notice Añade participantes a la loteria\n    function addParticipant() public payable atState(State.Active) {\n        \n        /// Comprobamos que el participante no este ya en la loteria\n        require(mapParticipants[msg.sender] != participationPrice);\n        /// Comprobamos que el participante participa con el precio de la loteria\n        require(msg.value == participationPrice);\n\n        /// Añadimos al mapping y al array las direcciones de los participantes.\n        mapParticipants[msg.sender] = participationPrice;\n        listParticipants.push(msg.sender);\n        \n        /// Calculamos el bote que llevamos acumulado\n        uint256 potAcumulated = listParticipants.length * participationPrice;\n        \n        /// Si nos pasamos de la recaudacion en la ultima participación se lo queda el lotero y dejamos la loteria en estado Finished\n        if (potAcumulated >= pot) {\n            status = State.Finished;\n        } else if (maxNumberParticipants == listParticipants.length) {\n             /// si llegamos a este punto es porque hemos llegado al maximo de participantes y no hemos llegado al bote necesario.\n             /// Dejamos la loteria en estado Failed\n            status = State.Failed;\n        }\n    }\n    \n    /// @notice Devuelve la lista de participantes\n    /// @return array de direcciones de los participantes\n    function getParticipants() public view returns (address[]) {\n        return listParticipants;\n    }\n    \n    /// @notice Reembolsa la participacion a un participante cuando la loteria esta en estado Failed\n    /// @dev Es el participante quien solicita y ejecuta el reembolso\n    function withdrawParticipation() public payable atState(State.Failed){\n        /// Comprobamos que existe el participante y que tiene el valor de la participacion en el mapping\n        require(mapParticipants[msg.sender] == participationPrice);\n        \n         /// Ponemos el valor del mapping a 0\n        mapParticipants[msg.sender] = 0;\n        \n        /// Enviamos la participacion al emisor de la transaccion que es el participante\n        msg.sender.transfer(participationPrice);\n    }\n\n    \n    /// @notice Sorteo de la loteria\n    /// @dev Solo el creador de la loteria puede realizar el sorteo\n    function raffle() public payable atState(State.Finished) {\n\n        /// Comprobamos que es el creador de la loteria quien intenta realizar el sorteo\n        require(msg.sender == ownerLottery, \"Solo puede realizar el sorteo el dueño del contrato\");\n\n        /// realizamos el sorteo\n        uint8 winnerRaffle = uint8(random() % listParticipants.length);\n        /// Guardamos el ganador\n        winner = listParticipants[winnerRaffle];\n        /// Pagamos el premio al ganador\n        winner.transfer(prize);\n        /// El lotero se queda la parte restante. La resta del bote - el premio\n        ownerLottery.transfer((listParticipants.length * participationPrice) - prize);\n        /// Ponemos el estado de la loteria a terminado\n        status = State.Terminated;\n    }\n\n    /// @notice Devuelve al ganador de la loteria. \n    /// @dev Se hace asi porque si no en web3 del method.send (de raffle) no podemos recuperar con return\n    /// @return el address del ganador\n    function getWinner() public view returns (address){\n        return winner;\n    }\n\n\n    /// @notice Genera un numero cuasi aleatorio\n    /// @dev Vamos a generar un numero cuasi aleatorio para realizar el sorteo de la loteria\n    /// @return Numero aleatorio\n    function random() private view returns (uint8) {\n       LotteryFactory l = LotteryFactory(masterContract);\n       /// Para generar el numero, usamos los parametros del sistema timestamp y block.dificulty, \n       /// asi como el numero de las loterias que hay creadas en el sistema\n       return uint8(keccak256(abi.encodePacked(block.timestamp, block.difficulty, l.getLotteries().length)));\n    }\n}  \n\n\n",
  "sourcePath": "/home/gabriel/tarea/lottery-service-student/lottery-contracts/contracts/LotteryFactory.sol",
  "compiler": {
    "name": "solc",
    "version": "0.4.26+commit.4563c3fc.Emscripten.clang"
  },
  "schemaVersion": "3.2.0",
  "updatedAt": "2020-07-28T10:31:43.251Z",
  "networkType": "ethereum",
  "devdoc": {
    "author": "Javier Eguren Mateo           Sergio Cañil Montero                      Ana Cristina Llera Amieva          Jorge Chamorro Rodríguez          Gabriel David Muñumel Mesa          Alfonso Martínez-Almeida Riol ",
    "methods": {
      "createLottery(uint8,uint256,uint256,uint256)": {
        "details": "La direccion de la loteria creada la vamos a ir guardando en un array",
        "params": {
          "_maxNumberParticipants": "Numero maximo de participantes que puede tener una loteria",
          "_participationPrice": "Precio de la participacion de la loteria",
          "_pot": "Bote a recaudar de la loteria",
          "_prize": "Premio de la loteria"
        }
      },
      "getLotteries()": {
        "return": "array de direcciones de las loterias creadas"
      }
    },
    "title": "Factoria de loterias"
  },
  "userdoc": {
    "methods": {
      "createLottery(uint8,uint256,uint256,uint256)": {
        "notice": "Crea loterias con los parametros indicados"
      },
      "getLotteries()": {
        "notice": "Devuelve la lista de las loterias creadas"
      }
    }
  }
}